:020000040800F2
:10000000E80400200101000859070008590600080B
:100010005507000831050008FB0D0008000000002E
:1000200000000000000000000000000011090008AE
:100030003505000800000000E1070008FD09000880
:100040001B0100081B0100081B0100081B01000820
:100050001B0100081B0100081B0100081B01000810
:100060001B0100081B0100081B0100081B01000800
:100070001B0100081B0100081B0100081B010008F0
:100080001B0100081B0100081B0100081B010008E0
:100090001B0100081B0100081B0100081B010008D0
:1000A0001B0100081B0100081B0100081B010008C0
:1000B0001B0100081B0100081B0100081B010008B0
:1000C0001B0100081B0100081B0100081B010008A0
:1000D0001B0100085D0B00081B0100081B01000844
:1000E0001B0100081B0100081B010008DFF80CD0F1
:1000F00000F0D6F900480047D1160008E8040020B7
:100100000648804706480047FEE7FEE7FEE7FEE7B1
:10011000FEE7FEE7FEE7FEE7FEE7FEE7010A00086E
:10012000ED0000082DE9FE4F81EA030404F00044CD
:1001300021F0004100944FF0000B23F0004350EAFF
:1001400001045ED052EA03045BD0C3F30A54C1F346
:100150000A552C44A4F2F3340194A0FB0254C1F3D9
:10016000130141F48011C3F3130343F4801301FB23
:10017000024400FB034E840A970A44EA815447EA8A
:100180008357A4FB076802958D0A05FB07854FEA94
:10019000932C04FB0C542705029D4FEA065847EAAE
:1001A0001637B5EB08056EEB070C870E920E47EA83
:1001B000811742EA8312A7FB0201B6EB0B0164EB45
:1001C00000042B0D43EA0C335E1844EB1C50DA4656
:1001D0005146E7FB0201C5F313044FEA0B3343EA30
:1001E00014534FEA0432019C43EA0603A4F10C04C1
:1001F0000294009CCDE900B400F003F903B0BDE81F
:10020000F08F00200146F9E72DE9F04D81EA030463
:1002100004F0004B21F0004514464FF0000A23F093
:10022000004150EA050220D054EA01021DD0C5F376
:100230000A570246C5F31303C1F31300C1F30A566C
:1002400040F4801543F48013A7EB0608101BD64634
:1002500008F2FD3873EB050002D308F1010801E054
:1002600092185B41B8F1000F03DA00200146BDE8A7
:10027000F08D00204FF48011064684460EE0171BD7
:1002800073EB050705D3121B63EB050306434CEA2A
:10029000010C49084FEA300092185B4150EA01070F
:1002A000EDD152EA030012D082EA040083EA05018C
:1002B000084305D0101BAB4106D20122002306E003
:1002C00000224FF0004302E06FF0010253101AEBDE
:1002D00006004CEB085110EB0A0041EB0B01BDE8A6
:1002E000F04D00F07FB896230022114600F04CB884
:1002F00020F00040C10DC0F3160040F400007F293B
:1003000001DA00207047962903DCC1F19601C8404C
:10031000704796398840704700F0004230F0004046
:100320000AD0C10D01F56071C0F3160042EA015117
:10033000C20840071143704700200146704701F092
:10034000004330B421F0004150EA010206D00A0D0A
:10035000A2F56072C1F31301002A02DC30BC002058
:100360007047440F44EAC104C100E01830BC00EB00
:10037000C250AFF300800029A8BF7047401C49005D
:1003800008BF20F00100704710B4B0FA80FC00FAFA
:100390000CF050EA010404BF10BC704749B1CCF125
:1003A000200421FA04F411FA0CF118BF01212143B1
:1003B0000843A3EB0C01CB1D4FEA00614FEA10206C
:1003C00042BF002010BC704700EBC350104400290E
:1003D000A4BF10BC7047401C490008BF20F00100BA
:1003E00010BC704710B5141E73F1000408DA401CED
:1003F00041F1000192185B411A4301D120F0010044
:1004000010BD2DE9F04D92469B4611B1B1FA81F233
:1004100002E0B0FA80F22032904600F053F8044631
:100420000F4640EA0A0041EA0B0153465A46084388
:1004300013D0114653EA010019D0C8F140025046CA
:1004400000F04FF805460E4650465946424600F029
:1004500039F8084305D0012004E020463946BDE8BC
:10046000F08D0020054346EAE0762C4337430A9896
:100470006305E40AA0EB08000022FD0A44EA4754A1
:100480000A3002D500200146E9E70105101969414B
:10049000DDE9084500196941BDE8F04DA2E700001B
:1004A000064C074D06E0E06840F0010394E80700C1
:1004B00098471034AC42F6D3FFF71CFEB019000881
:1004C000D0190008202A04DB203A00FA02F10020AB
:1004D00070479140C2F1200320FA03F31943904082
:1004E0007047202A04DB203A21FA02F000217047ED
:1004F00021FA02F3D040C2F120029140084319468C
:100500007047000008B50121082000F07BF90820A1
:10051000ADF8000010208DF8030003208DF80200D4
:100520006946024800F007F808BD0000000C0140D1
:1005300000BFFEE770472DE9F04102460025002686
:10054000002000230024002791F803C00CF00F05C1
:1005500091F803C00CF0100CBCF1000F03D091F81F
:1005600002C04CEA050591F800C0BCF1000F31D083
:10057000146800202BE04FF0010C0CFA00F3B1F8E6
:1005800000C00CEA03069E4220D183004FF00F0CFE
:100590000CFA03F7BC4305FA03FC4CEA040491F897
:1005A00003C0BCF1280F06D14FF0010C0CFA00FC7F
:1005B000C2F814C00AE091F803C0BCF1480F05D19D
:1005C0004FF0010C0CFA00FCC2F810C0401C0828C7
:1005D000D1D31460B1F800C0BCF1FF0F34DD546812
:1005E00000202EE000F1080C4FF0010808FA0CF38F
:1005F000B1F800C00CEA03069E4221D183004FF0FF
:100600000F0C0CFA03F7BC4305FA03FC4CEA040494
:1006100091F803C0BCF1280F05D100F1080C08FACD
:100620000CF8C2F8148091F803C0BCF1480F07D150
:1006300000F1080C4FF0010808FA0CF8C2F810801D
:10064000401C0828CED35460BDE8F081416170475A
:1006500001617047C160704700BFFEE708B5012126
:10066000082000F0CFF84FF40040ADF8000048201B
:100670008DF8030069461148FFF75DFF0121042052
:1006800000F0C0F84FF48070ADF8000048208DF8FD
:10069000030069460A48FFF74EFF0121042000F0DD
:1006A000B1F841F6B100ADF8000048208DF8030024
:1006B00069460348FFF73FFF08BD0000000C0140FA
:1006C0000008014010B52148006848B94FF47A701D
:1006D00000F0BAFE1D480068002835D1052010BD85
:1006E0001B48006838B9012000F0AEFE18480068C9
:1006F00050BB0120F3E716481030006840B90120D4
:1007000000F0A2FE124810300068E8B90220E6E7C7
:100710000F481430006840B9012000F095FE0C48E5
:100720001430006880B90320D9E709481C300068FC
:1007300040B9012000F088FE05481C30006818B957
:100740000420CCE70020CAE700BFC8E73C81214273
:100750000001214200BFFEE77047000070B5002194
:1007600000230F22C47804B3154C246804F4E06419
:10077000C4F5E064210AC1F10403CA40447804FAD4
:1007800003F184781440214309010E4C0678A155E9
:10079000047804F01F050124AC4005786D11AD000C
:1007A00005F1E025C5F8004109E0047804F01F05D3
:1007B0000124AC40044D0678761145F8264070BD02
:1007C0000CED00E000E400E080E100E002490143BC
:1007D000024A1160704700000000FA050CED00E0CD
:1007E0007047000029B1064AD2690243044BDA611E
:1007F00004E0034AD2698243014BDA61704700008A
:100800000010024029B1064A92690243044B9A61E2
:1008100004E0034A92698243014B9A6170470000E9
:100820000010024030B500210022002400232D4D8D
:100830006D6805F00C0121B1042905D0082923D1E8
:1008400005E0294D056022E0274D05601FE0254D9C
:100850006D6805F47012234D6D6805F4803402252F
:1008600005EB92421CB9214D554305600BE01D4D2F
:100870006D6805F400351DB11C4D5543056002E05F
:10088000194D5543056002E0174D056000BF00BFDC
:10089000144D6D6805F0F0010909154D6B5C056894
:1008A000DD4045600F4D6D6805F4E061090A104DAB
:1008B0006B5C4568DD4085600A4D6D6805F46051EC
:1008C000C90A0B4D6B5C4568DD40C560054D6D6820
:1008D00005F44041890B074D6B5CC568B5FBF3F52A
:1008E000056130BD0010024000127A0000093D0091
:1008F000000000201000002001460020034A50683C
:1009000020F00300084350607047000000100240D0
:10091000704710B500F002F810BD00000CB50020C3
:10092000019000903348006840F4803031490860FD
:1009300000BF3048006800F4003000900198401C6F
:100940000190009818B90198B0F5A06FF1D129482D
:10095000006800F4003010B10120009001E0002098
:1009600000900098012843D12348006840F010000F
:10097000214908600846006820F003000860084626
:10098000006840F0020008601A4840681949486051
:100990000846406848600846406840F48060486007
:1009A0000846406820F47C1048600846406840F4DF
:1009B000E81048600846006840F08070086000BF9A
:1009C0000C48006800F000700028F9D00948406821
:1009D00020F00300074948600846406840F00200E4
:1009E000486000BF0348406800F00C000828F9D1B7
:1009F0000CBD0000001002400020024070470000C3
:100A000010B51348006840F001001149086008461D
:100A10004068104908400E494860084600680E4981
:100A200008400B4908600846006820F480200860F0
:100A30000846406820F4FE0048604FF41F008860BC
:100A4000FFF767FF4FF000600449086010BD000029
:100A5000001002400000FFF8FFFFF6FE08ED00E086
:100A60003EB505460C4601210846FFF7BBFEADF832
:100A70000450ADF800400020ADF80600ADF80200CB
:100A800069464FF0804000F017F800214FF0804099
:100A900000F001F83EBD21B1028842F0010202805F
:100AA00004E002884FF6FE731A4002807047014648
:100AB000888C704781847047002202881D4B9842C1
:100AC0000ED01D4B98420BD0B0F1804F08D01B4B7D
:100AD000984205D01A4B984202D01A4B984204D142
:100AE0004FF68F731A404B881A43174B984207D022
:100AF000164B984204D04FF6FF431A40CB881A4356
:100B000002808B8883850B8803850A4B98420BD023
:100B1000094B984208D00E4B984205D00D4B984295
:100B200002D00D4B984201D10B7A038601238382B8
:100B300070470000002C01400034014000040040D8
:100B400000080040000C004000100040001400406D
:100B500000400140004401400048014010B540F20F
:100B600025510B4800F085F880B1094800F03CF9A8
:100B70000849087008460178054800F03AF900BFB6
:100B80004021034800F068F80128F9D110BD0000A9
:100B9000003801401C00002010B586B00446012139
:100BA0000420FFF72FFE01218803FFF72BFE4FF4EF
:100BB0000070ADF8140003208DF8160018208DF891
:100BC000170005A91C48FFF7B6FC4FF48060ADF88C
:100BD000140004208DF8170005A91748FFF7ABFC97
:100BE00001940020ADF80800ADF80A00ADF80C0043
:100BF000ADF810000C20ADF80E0001A90F4800F070
:100C000087F801210D4800F01BF8012240F2255120
:100C10000A4800F058F825208DF8000002208DF8D1
:100C2000010001208DF802008DF803006846FFF7EF
:100C300095FD06B010BD00000008014000380140DD
:100C400021B1828942F40052828104E082894DF60A
:100C5000FF731A408281704702460020B1F5007F81
:100C600000D100BF13880B400BB1012000E0002031
:100C7000704770B50246002400230025002040F68E
:100C80006A16B14200D100BFC1F3421501F01F0343
:100C9000012606FA03F3012D02D19689334006E0BE
:100CA000022D02D1168A334001E0968A33400C129D
:100CB000012606FA04F41688344013B10CB1012061
:100CC00000E0002070BDF0B503460024002600259A
:100CD000002040F66A17B94200D100BF1846C1F3A0
:100CE000421401F01F06012707FA06F5012C01D175
:100CF0000C3004E0022C01D1103000E014301AB1A5
:100D000007682F43076002E00768AF430760F0BD44
:100D10002DE9F04786B005460E460024A24600BFE6
:100D2000A1460027B08900B100BF2F462C8A4CF69F
:100D3000FF700440F08804432C82AC894EF6F31017
:100D40000440B08831890843718908430443AC8169
:100D5000AC8A4FF6FF400440B0890443AC8201A83E
:100D6000FFF760FD1F48874202D1DDF810A001E0C7
:100D7000DDF80CA0A88900F4004040B10AEBCA00DD
:100D800000EB0A1031684900B0FBF1F807E00AEB0C
:100D9000CA0000EB0A1031688900B0FBF1F864204A
:100DA000B8FBF0F004012009642101FB1089A88937
:100DB00000F4004040B1322000EBC900B0FBF1F07C
:100DC00000F00700044308E0322000EB0910642122
:100DD000B0FBF1F000F00F0004432C8106B0BDE839
:100DE000F08700000038014001468888C0F3080001
:100DF0007047C1F308028280704700BFFEE702E03F
:100E000008C8121F08C1002AFAD170477047002095
:100E100001E001C1121F002AFBD1704701200D49DA
:100E2000086000200C49C1F89801012009490831E7
:100E300008600020091D08600120091D08600020CD
:100E4000091D08600120091D086000200249C1F841
:100E5000B0017047948121420080214200200D4959
:100E6000086001200C49C1F89801002009490831A7
:100E700008600120091D08600020091D086001208C
:100E8000091D08600020091D086001200249C1F801
:100E9000B0017047948121420080214200200B491B
:100EA00008600B49C1F89801084908310860091D1C
:100EB0000860091D08600120091D08600020091D47
:100EC000086001200249C1F8B001704794812142B5
:100ED0000080214210B5002400F0C6FA00F02CFC7E
:100EE00000F010FCFFF7EEFB0446204600F040FC4B
:100EF000052C02D100F0AAF848E0052C45D2DFE825
:100F000004F003062528360000F086F83DE020486E
:100F1000007818B11E480078012802D1FFF79EFF23
:100F200013E01B480078022802D100F033F80CE0EF
:100F300017480078032802D1FFF7B0FF05E01448F6
:100F40000078042801D100F067F81EE0FFF766FF83
:100F50001BE00F480078022803D00D4800780428D1
:100F600002D100F059F801E0FFF798FF0DE00848C2
:100F70000078032803D006480078042802D100F046
:100F80004BF801E000F006F800BF00BF10BD000004
:100F90001600002000200C49086001200B49C1F810
:100FA000980100200849083108600120091D0860E7
:100FB0000020091D0860091D0860091D086003491B
:100FC000C1F8B001704700009481214200802142A5
:100FD0000120064908600649C1F888010349083123
:100FE00008600349C1F8980170470000840121425C
:100FF000000021420020064908600649C1F8880126
:101000000349083108600349C1F89801704700009E
:10101000840121420000214200200A4908600A4957
:10102000C1F89801074908310860091D0860091DC9
:101030000860091D0860091D08600349C1F8B00176
:1010400070470000948121420080214210B5384849
:101050000078012821D100203549087035480078F2
:1010600018B134480078012802D1FFF7F7FE5EE09E
:1010700030480078022802D1FFF78CFF57E02D4856
:101080000078032802D1FFF709FF50E029480078D3
:1010900004284CD1FFF7C0FF49E02548007802281A
:1010A00005D1002022490870FFF7B8FE3FE0204834
:1010B0000078032810D100201D4908701D480078D1
:1010C000022803D01B480078042802D1FFF7A4FFB0
:1010D0002DE0FFF7E3FE2AE015480078042810D140
:1010E00000201349087013480078032803D01148E2
:1010F0000078042802D1FFF78FFF18E0FFF74AFFBE
:1011000015E00B48007805280FD100200849087029
:1011100008210948FFF79AFA40F6B83000F094F930
:1011200008210548FFF794FA01E0FFF775FF10BDAD
:101130001C00002016000020000C01402DE9FC5F7F
:1011400000200190012023490860022000F06EF980
:1011500000202149C1F8B40100BF1E487C38006856
:101160000028FAD000214FF08040FFF7A3FC0121B6
:101170008807FFF790FC00BF16487C3800680128FC
:10118000FAD000214FF08040FFF785FC4FF08040FF
:10119000FFF78DFC0190142000F056F90198FFF73D
:1011A000A2F80090FFF7B8F880460C4A0C4BFEF707
:1011B000B9FF064600224FF08043FFF725F80446AA
:1011C0000022084BFEF7AEFF8246FFF7B8F8BDE8F5
:1011D000FC9F0000B481214200802142809F71E188
:1011E0004048363F000059402DE9FC5F0020019047
:1011F000012023490860022000F018F9002021494D
:10120000C1F8A00100BF1E487C3800680028FAD051
:1012100000214FF08040FFF74DFC01218807FFF7C8
:101220003AFC00BF16487C3800680128FAD000213B
:101230004FF08040FFF72FFC4FF08040FFF737FC66
:101240000190142000F000F90198FFF74CF800908D
:10125000FFF762F880460C4A0C4BFEF763FF064628
:1012600000224FF08043FEF7CFFF04460022084BD8
:10127000FEF758FF8246FFF762F8BDE8FC9F0000CA
:10128000A001224200002242809F71E14048363F87
:101290000000594010B50748006838B9012000F037
:1012A000D3F80448006818B9012010BD0020FCE7FD
:1012B00000BFFAE72001214208B501210820FFF70D
:1012C000A1FA01210820FFF79DFA01210420FFF770
:1012D00099FA01210820FFF795FA01210820FFF76C
:1012E00091FA01210420FFF78DFA01210820FFF770
:1012F00089FA01210820FFF785FA01210420FFF770
:1013000081FA01210820FFF77DFA01210820FFF76B
:1013100079FA01210420FFF775FA2020ADF80000CA
:1013200010208DF8030003208DF80200694639482B
:10133000FFF701F94020ADF8000069463548FFF796
:10134000FAF80220ADF8000069463348FFF7F3F8D9
:101350008020ADF8000069462E48FFF7ECF84FF406
:101360008070ADF8000069462A48FFF7E4F80420D1
:10137000ADF8000069462848FFF7DDF84FF400702B
:10138000ADF8000069462348FFF7D5F84FF48060B8
:10139000ADF8000069461F48FFF7CDF80820ADF80A
:1013A000000069461C48FFF7C6F84FF40060ADF82E
:1013B000000069461748FFF7BEF84FF48050ADF8BB
:1013C000000069461348FFF7B6F84020ADF800006A
:1013D00069461148FFF7AFF800201049086010492E
:1013E000C1F898010D4908310860091D0860091D00
:1013F0000860091D0860091D0860091D08600120BA
:1014000008490860091D0860091D08600649C1F8FF
:10141000980108BD000C0140000801409481214260
:10142000008021428401214200002142002106E087
:101430000C2100BF0A1EA1F10103D9B2FAD1021E8C
:10144000A0F10100F4D17047002107E04FF496614C
:1014500000BF0A1EA1F1010399B2FAD1021EA0F148
:10146000010398B2F2D1704710B500212648FFF76A
:10147000E7FBFFF763FE0446FEF73AFF23490880C7
:1014800001212148FFF7DCFB00211F48FFF7D8FBB3
:10149000FFF7AAFE0446FEF72BFF1D490880012135
:1014A0001948FFF7CDFBFFF7F5FE012827D11748B4
:1014B00000880A2807DB164800880A2803DB012079
:1014C000144908701EE0114800880A2807DA1048FD
:1014D00000880A2803DB02200E49087012E00B483E
:1014E00000880A2807DB0A4800880A2803DA032054
:1014F0000849087006E004200649087002E0002050
:101500000449087010BD0000003801401800002098
:101510001A0000201600002008B501210820FFF75E
:1015200071F901210820FFF76DF901210820FFF76B
:1015300069F901211020FFF765F90120ADF80000DD
:1015400010208DF8030003208DF8020069460C4836
:10155000FEF7F1FF0220ADF8000069460848FEF7EB
:10156000EAFF0420ADF8000069460548FEF7E3FFF6
:10157000FF20ADF8000069460248FEF7DCFF08BD19
:10158000000C01400010014010B5FFF7C5FF3820E6
:1015900000F054F80C2000F051F8062000F04EF84E
:1015A000012000F04BF810BD2DE9F04104460F4634
:1015B00016460025012F01DC0F2C01DDBDE8F0816E
:1015C000012F1CDA17E0C4F11000A84206DD05F176
:1015D00080012144C8B200F031F806E005F1C001F5
:1015E00021441039C8B200F029F8307800F04AF8E8
:1015F000761C681CC5B230780028E4D11BE017E0E7
:10160000C4F11000A84206DD05F1C0012144C8B2B2
:1016100000F014F806E005F1800121441039C8B249
:1016200000F00CF8307800F02DF8761C681CC5B27C
:1016300030780028E4D100BFC0E7000010B50446B0
:1016400000200D4908600D49C1F884010A4908319C
:10165000086021460A48FEF7FDFF6420FFF7E6FE1A
:1016600001200649C1F888016420FFF7DFFE002051
:1016700001490831086010BD80812142008021426B
:101680000010014010B5044601200E4908600020FA
:101690000D49C1F884010B490831086021460B4807
:1016A000FEF7D8FF6420FFF7C1FE01200649C1F80C
:1016B00088016420FFF7BAFE002002490831086063
:1016C00010BD0000808121420080214200100140B5
:1016D0004FF4A060FFF77AF80020FFF70DF9FEF74E
:1016E000BDFFFFF7E9FDFFF74FFFFEF70BFF00F02F
:1016F0004BF94FF4E130FFF74FFA01E0FFF7EAFB57
:10170000FCE7000010B50948006838B10821084816
:10171000FEF79EFF01200749087006E008210448F3
:10172000FEF794FF00200349087010BD30012142EC
:10173000000C01401500002010B50B48006801287E
:1017400002D1FFF745FC0EE0FFF754FC0748007894
:10175000401C0649087008460078022803D1002082
:101760000870FFF735FC10BD2C0121421400002049
:1017700010B5044648A200210846FFF715FF48A20D
:1017800001210020FFF710FF47480068012805D11C
:1017900046A201210C20FFF707FF04E045A201212A
:1017A0000C20FFF701FF052C3BD143A200210520AF
:1017B000FFF7FAFE42480078012805D141A2012135
:1017C0000620FFF7F1FE1CE03D480078022805D115
:1017D0003EA201210620FFF7E7FE12E0384800781C
:1017E000032805D13BA201210620FFF7DDFE08E01A
:1017F00033480078042804D138A201210620FFF7DD
:10180000D3FE2F480078052805D136A200210C20F0
:10181000FFF7CAFE3EE035A200210C20FFF7C4FE10
:1018200038E034A200210520FFF7BEFE2CB933A218
:1018300001210620FFF7B8FE1EE0012C05D121A2F0
:1018400001210620FFF7B0FE16E0022C05D11FA2F1
:1018500001210620FFF7A8FE0EE0032C05D11DA2F2
:1018600001210620FFF7A0FE06E0042C04D11BA2F4
:1018700001210620FFF798FE2248007828B919A216
:1018800000210C20FFF790FE04E018A200210C209C
:10189000FFF78AFE10BD00004D4F44453A0000009E
:1018A00053544154453A00002C01214248494748CD
:1018B000000000004C4F570042746F6F74680000C6
:1018C0001C00002046776172640000004261636B77
:1018D000200000004C6566742000000052696768B3
:1018E00074000000424545500000000020202020E8
:1018F00000000000427574746F6E000053746F70C6
:10190000200000001500002008B501210820FEF786
:1019100079FF4FF40050ADF8000010208DF803005F
:1019200003208DF8020069461548FEF704FE4FF4C7
:101930008040ADF8000048208DF80300694610484B
:10194000FEF7F9FD01211020FEF75CFF4FF48070D7
:10195000ADF8000010208DF8030003208DF8020080
:1019600069460848FEF7E7FD4FF40070ADF8000047
:1019700048208DF8030069460248FEF7DCFD08BDEB
:10198000000C01400010014010B5FFF7BDFF002022
:101990000549086001200549C1F8380107214FF6C3
:1019A000FF70FFF75DF810BDB48121420080214235
:1019B000D0190008000000201C000000FE0D0008E7
:1019C000EC1900081C000020CC0400000E0E0008DA
:1019D00000000000010203040102030406070809D5
:0C19E000020406080000000000000000E7
:04000005080000ED02
:00000001FF
